:020000040800F2
:10000000003000203103000879030008790300085C
:100010007903000879030008790300080000000054
:10002000000000000000000000000000790300084C
:100030007903000800000000790300087903000834
:1000400000000000000000000000000000000000B0
:1000500000000000000000000000000000000000A0
:100060000000000000000000000000000000000090
:100070000000000000000000000000000000000080
:100080000000000000000000000000000000000070
:100090000000000000000000000000000000000060
:1000A0000000000000000000000000000000000050
:1000B0000000000000000000000000000000000040
:1000C0000000000000000000000000000000000030
:1000D0000000000000000000000000000000000020
:1000E0000000000000000000000000000000000010
:1000F0000000000000000000000000000000000000
:1001000000000000000000000000000000000000EF
:1001100000000000000000000000000000000000DF
:1001200000000000000000000000000000000000CF
:1001300000000000000000000000000000000000BF
:1001400000000000000000000000000000000000AF
:10015000000000000000000000000000000000009F
:10016000000000000000000000000000000000008F
:10017000000000000000000000000000000000007F
:08018000000000000000000077
:1001900010B5054C237833B9044B13B10448AFF3C1
:1001A00000800123237010BD7800002000000000B3
:1001B0001020000808B5034B1BB103490348AFF3F7
:1001C000008008BD000000007C0000201020000816
:1001D000154B002B08BF134B9D46A3F5803A002119
:1001E0008B460F461348144A121A01F0C9F90F4BF7
:1001F000002B00D098470E4B002B00D098470020D2
:10020000002104000D000D48002802D00C48AFF377
:10021000008001F091F92000290001F02FF901F090
:1002200077F900BF00000800000000000000000097
:1002300000000000780000202403002000000000DF
:1002400000000000BC200008000000207800002012
:10025000780000202403002010B4002402780B78DA
:10026000D41A42784B78D21AA41A82788B78D21A90
:10027000A41AC278CB78D21AA41A002C02D100207A
:1002800010BC7047012010BC704700000000000047
:1002900001F0FF01102A2BDB10F0070F08D010F837
:1002A000013B013A8B422DD010F0070F42B3F6D13B
:1002B000F0B441EA012141EA014122F007047FF054
:1002C00000070023F0E80256083C85EA010586EAAB
:1002D000010685FA47F5A3FA87F586FA47F6A5FAE7
:1002E00087F68EB9EED1F0BC01F0FF0102F00702F3
:1002F00032B110F8013B013A83EA010313B1F8D19E
:100300000020704701387047002D06BF354603387E
:10031000073815F0010F07D1013015F4807F02BFB7
:10032000013015F4C03F0130F0BC0138704700BF08
:10033000002103E00B4B5B58435004310A480B4B40
:1003400042189A42F6D30A4A02E0002313600432AC
:10035000084B9A42F9D3AFF3008001F0EDF801F0B9
:100360008DF8FEE7BC200008000000207800002087
:100370007800002024030020FEE7000070B596B04E
:10038000002403264FF4A0230CA80125CDE90C631B
:100390001094149400F02CF90F23214602A8CDE903
:1003A0000235CDE90444069400F08AFB114B5A69EA
:1003B00042F400225A615B69CDE9094603F4002347
:1003C0000D4C0193019B07A94FF4C0432046CDE992
:1003D000073500F01FFC2A4620464FF4005100F07C
:1003E000DDFC2A464FF48041204600F0D7FC16B0D1
:1003F00070BD00BF001002400008004810B54FF467
:10040000C06288B00223CDE9032301210323CDE993
:100410000513164C07230793636943F400336361A4
:10042000636903F40033019303A94FF09040019BEB
:1004300000F0F0FB0E48DFF83CC04FF41643C0E973
:1004400000C30023C0E90233036183610C234361CD
:10045000A36943F48043A361A36903F48043029337
:10046000029B00F0EFFD08B010BD00BF001002407D
:10047000A800002000380140104B30B55A6942F402
:1004800000325A615B6987B003F400330093009B2C
:100490004FF480540123CDE901430025032301A932
:1004A0004FF09040CDE9035300F0B4FB2A462146BB
:1004B0004FF0904000F072FC07B030BD00100240D9
:1004C00001224FF480514FF0904000F067BC0022B1
:1004D0004FF480514FF0904000F060BC37B50A4DAA
:1004E0000A4C41F2883301220DF10701284600F041
:1004F0002AFE18B99DF8070003B030BD236A43F007
:1005000008032362EDE700BFA80000200038014087
:1005100007B541F288338DF8070001220DF107017C
:10052000024800F0BAFD03B05DF804FBA80000200B
:1005300028B1002203484FF4005100F02FBC0122E3
:10054000F8E700BF0008004828B1002203484FF434
:10055000804100F023BC0122F8E700BF00080048FA
:10056000164B30B5DC68C4F30224C4F10703251D23
:10057000042B28BF0423062D4FF0FF3505FA03F3A3
:100580008CBF033C002421EA0303A34005FA04F4D2
:1005900022EA0402002843EA0203ACBF00F16040F3
:1005A000074A4FEA0313B8BF00F00F00DBB2AABF3F
:1005B00000F56140135480F8003330BD00ED00E0D9
:1005C00014ED00E0014B00201860704794000020FB
:1005D000024B1868421C1A60704700BF940000204C
:1005E00070474FF4E10070474FF4E100704700009E
:1005F00003682DE9F743D907044611D423689A0705
:1006000000F1868023681E0700F1F48023685D07EF
:1006100000F13B81E269002A40F0CE81002021E018
:10062000B7494B6803F00C03042B07D04B6803F069
:100630000C03082B19D14B68DB0316D54FF400339C
:1006400093FAA3F2096893FAA3F3B3FA83F303F0DE
:100650001F03012202FA03F30B42CFD06368002B81
:10066000CCD1012003B0BDE8F0836268B2F5803FD1
:1006700024D10B6843F480330B60CB6AA06823F06D
:100680000F030343CB624AB3FFF7A2FF4FF40036D8
:100690000546012796FAA6F30A6896FAA6F3B3FA76
:1006A00083F303F01F0307FA03F31342A6D1FFF706
:1006B0008FFF431B642BEDD90320D3E70B6832B9BE
:1006C00023F480330B600B6823F48023D4E7B2F566
:1006D000A02FF5D143F480230B60CAE7FFF778FF22
:1006E0004FF400360546012796FAA6F30A6896FAF3
:1006F000A6F3B3FA83F303F01F0307FA03F31342DD
:100700003FF47CAFFFF764FF431B642BECD9D3E7C6
:100710007B494B6813F00C0F07D04B6803F00C03B8
:10072000082B21D14B68DF031ED4022393FAA3F2D6
:10073000086893FAA3F3B3FA83F303F01F030122CB
:1007400002FA03F3034202D02369934289D1086875
:10075000F82393FAA3F3B3FA83F26369934020F08A
:10076000F80213430B604DE72269012502B395FAA5
:10077000A5F3B3FA83F303F1845303F584139B00C9
:1007800002271D60FFF724FF064697FAA7F30A68C1
:1007900097FAA7F3B3FA83F303F01F0305FA03F301
:1007A0001342D4D1FFF714FF831B022BEDD983E74B
:1007B00095FAA5F3B3FA83F303F1845303F5841395
:1007C0009B0002271A60FFF703FF064697FAA7F37C
:1007D0000A6897FAA7F3B3FA83F303F01F0305FA45
:1007E00003F313423FF40EAFFFF7F2FE831B022B1D
:1007F000ECD961E7A269424D4248012112B391FA56
:10080000A1F3B3FA83F303449B0002261960FFF7B8
:10081000DFFE074696FAA6F396FAA6F396FAA6F333
:100820006A6A96FAA6F3B3FA83F303F01F0301FA98
:1008300003F313427FF4EAAEFFF7CAFEC31B022B99
:10084000E8D939E791FAA1F3B3FA83F303449B00A3
:1008500002261A60FFF7BCFE074696FAA6F396FA40
:10086000A6F396FAA6F36A6A96FAA6F3B3FA83F3A6
:1008700003F01F0301FA03F313423FF4C7AEFFF77F
:10088000A7FEC31B022BE8D916E71D49CB69D80088
:1008900034D4CB6943F08053CB61CB6903F08053F0
:1008A0000193019B0125184E3368DA052ED5E368C4
:1008B000012B3BD10B6A43F001030B62FFF788FE6B
:1008C00002260746B1464FF0010896FAA6F396FABB
:1008D000A6F3002B68D00A6A99FAA9F3B3FA83F356
:1008E00003F01F0308FA03F3134255D0002D3FF421
:1008F00091AECB6923F08053CB618BE60025D2E724
:10090000001002402081901000700040336843F4D2
:1009100080733360FFF75CFE07463368DB05C6D49F
:10092000FFF756FEC01B6428F7D9C5E633BB0B6A38
:1009300023F001030B620B6A23F004030B62FFF741
:1009400047FE02260746B1464FF0010896FAA6F385
:1009500096FAA6F363B30A6A99FAA9F3B3FA83F392
:1009600003F01F0308FA03F31342BFD0FFF730FE72
:1009700041F28833C01B9842E8D99DE6052B0B6AEB
:1009800003D143F004030B6294E723F001030B62ED
:100990000B6A23F0040390E7FFF71AFE41F2883355
:1009A000C01B984291D987E696FAA6F34A6A93E764
:1009B00096FAA6F34A6ACFE740494B6803F00C0366
:1009C000082B3FF44EAE022A4FF0807351D193FAB8
:1009D000A3F3B3FA83F303F1845303F584139B0069
:1009E00000221A60FFF7F4FD4FF00077064601255C
:1009F00097FAA7F30A6897FAA7F3B3FA83F303F019
:100A00001F0305FA03F313422DD1D4E908034A6802
:100A1000034322F4741213434B604FF0807393FA34
:100A2000A3F3B3FA83F303F1845303F584139B0018
:100A300001261D60FFF7CCFD4FF00075044695FAC6
:100A4000A5F30A6895FAA5F3B3FA83F303F01F033D
:100A500006FA03F313427FF4E1ADFFF7B9FD001B83
:100A60000228ECD928E6FFF7B3FD831B022BBFD980
:100A700022E693FAA3F3B3FA83F303F1845303F565
:100A800084139B0000221A60FFF7A2FD4FF000754F
:100A90000446012695FAA5F30A6895FAA5F3B3FA78
:100AA00083F303F01F0306FA03F313423FF4B6ADDA
:100AB000FFF78EFD001B0228ECD9FDE50010024077
:100AC000504AF8B5136803F007038B4204461BD362
:100AD0002268900724D4D2072AD44A4A136803F024
:100AE00007038B427AD82068430700F1828010F018
:100AF000080014D0444A2169536823F4605343EA40
:100B0000C103536000200AE0136823F007030B437E
:100B10001360136803F007038B42D9D00120F8BD9E
:100B20003948A568436823F0F0032B434360D2E7BC
:100B30006268354D012A27D14FF4003393FAA3F0B0
:100B4000286893FAA3F3B3FA83F303F01F0302FABE
:100B500003F30342E2D06B6823F003031A436A6095
:100B6000FFF736FD6368012B064641F288371ED138
:100B70006B6803F00C03042BAFD0FFF729FD801B3B
:100B8000B842F5D90320CAE7022A0CBF4FF0007320
:100B9000022393FAA3F02E6893FAA3F3B3FA83F334
:100BA00003F01F03012000FA03F33342D2E7022BC4
:100BB0000FD16B6803F00C03082B8ED0FFF708FDF4
:100BC000801BB842F5D9DDE7FFF702FD801BB84274
:100BD000D8D86B6813F00C0FF6D17EE7136823F0BA
:100BE00007030B431360136803F007038B4295D18F
:100BF00079E70549E3684A6822F4E0621A434A60EB
:100C000075E700BF00200240001002404FF4E100F1
:100C1000704700002DE9F74FDFF87C815C4C002322
:100C20004FF001090A6832FA03F502D103B0BDE8BA
:100C3000F08F09FA03FA1AEA020200F09E804D686A
:100C400025F0100EBEF1020F14D14FEAD30C00EBC9
:100C50008C0C03F0070BDCF820604FEA8B0B0F279E
:100C600007FA0BF726EA07070E6906FA0BF63E436A
:100C7000CCF82060D0F800B04FEA430C032606FA07
:100C80000CF72BEA070BFE4305F0030707FA0CF7F6
:100C90000EF1FF3E47EA0B07BEF1010F076011D8C6
:100CA000876806EA070ECF6807FA0CF747EA0E07CF
:100CB0008760476827EA0A0AC5F300179F4047EA9A
:100CC0000A074760C76837408E6806FA0CF63E434D
:100CD000C660EE0051D5D8F8186046F00106C8F895
:100CE0001860D8F8186023F0030707F1804706F072
:100CF000010607F58037019603F0030E019EBE68DA
:100D00004FEA8E0E4FF00F0C0CFA0EFCB0F1904F24
:100D100026EA0C0C33D01F4EB04232D006F5806666
:100D2000B04230D006F58066B0422ED006F580661F
:100D3000B0420CBF0426052606FA0EF646EA0C065B
:100D4000BE602668D74315F4803F0CBF3E40164373
:100D50002660666815F4003F0CBF3E40164366608F
:100D6000A66815F4801F0CBF3E401643A660E668D7
:100D7000AD0254BF3E401643E660013352E7002601
:100D8000DAE70126D8E70226D6E70326D4E700BF34
:100D90000004014000040048001002400AB18161D3
:100DA000704781627047000002688168C36930B58E
:100DB000056914682943456924F41644294324F03D
:100DC0000C041943214311605168C468056A21F479
:100DD0004051214351609468816924F4306429436F
:100DE0002143916062498A4216D101F55841096B4D
:100DF00001F003010139022900F2B2805D4CB3F524
:100E0000004F615C77D1082972D8DFE801F0ACAC03
:100E10002471AC717171A40057498A422CD101F53B
:100E2000E631096B01F44031B1F5003F00F09080EC
:100E30000BD8002900F09480B1F5803F00F090803D
:100E4000B3F5004F54D0012015E0B1F5403FF7D184
:100E5000B3F5004F66D141684B0803F1F47303F515
:100E60009043B3FBF1F300209BB223F00F01C3F3D7
:100E700042030B43D36030BD40498A4210D101F593
:100E8000E431096B01F44021B1F5002F60D004D8A2
:100E9000002965D0B1F5802FD0E7B1F5402FD6E716
:100EA00037498A4210D101F5E231096B01F4401152
:100EB000B1F5001F4CD004D8002951D0B1F5801FE6
:100EC000BCE7B1F5401FC2E72E498A42B8D101F50F
:100ED000E031096B01F44001B1F5000F38D004D8BE
:100EE00000293DD0B1F5800FA8E7B1F5400FAEE77E
:100EF00001200023B9E70829A5D801A353F821F060
:100F00003D0F00083D0F0008250F0008470E0008A0
:100F10003D0F0008470E0008470E0008470E000866
:100F2000470F000841684B0803F5740303F510539D
:100F3000B3FBF1F39BB2D36000209CE741684B0800
:100F400003F5E103F4E741684B0803F50043EFE7DD
:100F5000B3F5004FF7D141684B0803F5803380E7C4
:100F6000B3F5004FEAD141684B0803F5610378E718
:100F7000003801402C200008004400400048004098
:100F8000004C004000500040F8B5069F044615464E
:100F90001E462268D36931EA03030CBF01230023F4
:100FA000AB4201D0002014E07B1CF3D097B923683A
:100FB0001A6822F4D0721A609A6822F001029A60CC
:100FC000202384F8693084F86A30002384F868307C
:100FD0000320F8BDFFF7FCFA801BB842D9D9E6E739
:100FE00037B504460021C166FFF7F2FA23681B6893
:100FF0001A07054617D423681B685B070AD56FF0EC
:101000007E43009300222B464FF480012046FFF7D9
:10101000BBFFA0B92023002084F8693084F8680061
:1010200084F86A300CE06FF07E4300930A46034672
:101030004FF400112046FFF7A7FF0028DBD0032064
:1010400003B030BD10B5044628B390F8693003F002
:10105000FF020BB980F868202268242384F86930E5
:10106000136823F0010313602046FFF79DFE01285B
:1010700011D023685A6822F490425A609A6822F08C
:101080002A029A601A6842F0010220461A60BDE8FE
:101090001040FFF7A5BF012010BDF7B51E4690F820
:1010A0006930202B0D46044611464AD1002D46D00A
:1010B000002A44D090F86830012B42D0012380F8F8
:1010C00068300023C366212380F86930FFF780FA77
:1010D0000746A4F85010A4F85210B4F8522092B267
:1010E00062B900963B4640212046FFF74DFF98B974
:1010F000202384F8693084F868000EE0B4F85220A8
:101100000096013A92B2A4F852203B460022802178
:101110002046FFF739FF10B1032003B0F0BDA368EC
:101120002268B3F5805F07D123692BB935F8023BFC
:10113000C3F308031385D0E715F8013BFAE7012054
:10114000EBE70220E9E72DE9F3411E4690F86A300B
:10115000202B0D46044611465CD1002D58D0002AA4
:1011600056D090F86830012B54D0012380F86830B5
:1011700003684FF0FF321A620023C366222380F80F
:101180006A30FFF725FAA368A4F85810B3F5805F1A
:101190008046A4F85A1015D123698BB940F2FF1389
:1011A000A4F85C30B4F85C70B4F85A0080B280B92E
:1011B000202384F86A3084F8680002B0BDE8F0812A
:1011C000FF23EDE7002BEDD12369002BF8D07F231F
:1011D000E6E7B4F85A200096013A92B2A4F85A20F1
:1011E0004346002220212046FFF7CEFEA0B9A26888
:1011F0002368B2F5805F06D1226922B99B8C3B40FF
:1012000025F8023BD0E79B8C3B4005F8013BCBE740
:101210000120D2E70220D0E70320CEE708B50A4B31
:101220001968024609B909491960186869460244F3
:101230008A4206D900F066F90C2303604FF0FF30B4
:1012400008BD1A60FCE700BF9C00002028030020B6
:10125000074B186858B10749CA6842F08072CA60E3
:1012600000225A601A6842F001021A600120704799
:10127000001000E0F0ED00E0014B00225A607047E2
:10128000001000E0014B5868704700BF001000E0FC
:1012900010B50160034600F6BC1141F2B5741A683E
:1012A000624343F8042F8B42F9D14FF41C73C0F80A
:1012B000C03910BDD0F8C039B3F51C7F70B50446F5
:1012C0004FD303D041F20511FFF7E2FF2F4D04F594
:1012D000637621462A46086851F8043F00F0004032
:1012E00023F000430343D1F8300680EA530003F0B3
:1012F00001038E4255F8233080EA030041F8040CC4
:10130000E9D1211F04F22C65D1F89033D1F8940370
:1013100003F0004320F00040034351F8040F80EA3B
:10132000530003F001038D4252F8233083EA000397
:10133000C1F88C33E8D1D4F8BC39216803F00043FC
:1013400021F000410B43D4F8301681EA530103F039
:10135000010352F8233059400023C4F8BC19C4F8E3
:10136000C039D4F8C0390A485A1C54F82330C4F89C
:10137000C02983EAD32300EAC3104340054800EAAA
:10138000C330584080EA904070BD00BF3020000854
:1013900080562C9D0000C6EF10B504462078FFF75C
:1013A000B7F814F8013F002BF8D110BDF8B504468A
:1013B0000E4605462B1B9E420CDD2F46FFF78EF88E
:1013C00028700028FAD00A2805F10105F2D100237F
:1013D0003B70F8BD3444002304F8013CF9E72DE9E3
:1013E000F84307460D4600F14008002600EB0109CE
:1013F000AE4201DBBDE8F88306F13F039D4207EBF7
:1014000006040ADC4C4503D1403608F14008EFE7FA
:1014100014F8010BFFF77CF8F4E714F8010BFFF761
:1014200077F84445F9D1FFF759F8EDE72DE9F8438E
:1014300007460D4600F14008002600EB0109AE42C8
:1014400001DBBDE8F88306F13F039D4207EB06048C
:101450000ADC4C4503D1403608F14008EFE7FFF7BE
:101460003DF804F8010BF4E7FFF738F804F8010B36
:101470004445F9D16120FFF74BF8ECE7F8B5FEF7EA
:101480007DFFFEF7BBFFFEF7F7FF174D174F184C18
:10149000FFF724F8632805D07328F9D11548FFF722
:1014A0007BFFF5E710480421FFF7C0FF6B68C3B16D
:1014B000FFF706F81049A1F10800FEF7CDFE064639
:1014C000FFF705F826B90D49204600F09DF806E023
:1014D0006A680B49013A20466A6000F075F82046B8
:1014E000DDE73946F0E700BF08000020652000086E
:1014F0001801002038200008100000203B200008C0
:1015000044200008014B1868704700BF14000020F9
:1015100008B5074B044613B10021AFF30080054B1B
:101520001868836A03B19847204600F06FFD00BF3A
:10153000000000007420000870B50D4D0D4C641BB8
:10154000A4100026A64209D10B4D0C4C00F062FD00
:10155000641BA4100026A64205D170BD55F8043BBB
:1015600098470136EEE755F8043B98470136F2E715
:10157000B4200008B4200008B4200008B8200008F7
:1015800002440346934200D1704703F8011BF9E778
:101590000CB400B59DB01EAB029106916FF00041F6
:1015A00007910491074953F8042B059102A901936F
:1015B00000F008F9029B00221A701DB05DF804EBE0
:1015C00002B070470802FFFF0EB400B59CB01DAB1F
:1015D000029006906FF00041094807910491094973
:1015E00053F8042B05910068019302A900F0EAF872
:1015F000029B00221A701CB05DF804EB03B0704728
:10160000140000200802FFFF034611F8012B03F825
:10161000012B002AF9D170472DE9F0478E689E42D0
:1016200082460C4690461F4638D88A8912F4906F3D
:1016300032D025680969A5EB0109656905EB450507
:1016400005EBD57501334B446D109D4238BF1D46E7
:10165000530531D5294600F0BFFB064650B90C238F
:10166000CAF80030A38943F04003A3814FF0FF3054
:10167000BDE8F08721694A4600F038FBA38923F4CE
:10168000906343F08003A381266165614E44A5EB1E
:1016900009052660A5603E46BE4200D93E46324658
:1016A0002068414600F030FBA36822689B1B32444F
:1016B000A36022600020DBE72A4600F0E7FB064635
:1016C0000028E1D12169504600F038FBC7E7936854
:1016D0002DE9F74F80460C461746002B61D00023BA
:1016E000D2F800A001939B46BBF1000F2BD0A66857
:1016F000B34542D3A28912F4906F3ED02568216988
:10170000A5EB0109656905EB450505EBD57509F103
:1017100001006D105844854238BF0546530545D534
:101720002946404600F058FB0646A0B90C23C8F8ED
:101730000030A38943F04003A3810023C7E90133AC
:101740004FF0FF302FE0DAF80030DAF804B0019300
:101750000AF1080AC8E74A46216900F0C7FAA289D7
:1017600022F4906242F08002A281266165614E44BB
:10177000A5EB09052660A5605E465E4528BF5E466E
:1017800032460199206800F0BFFAA268921BA2605D
:10179000226832442260BA68A2EB0B03BB60002BC4
:1017A000D1D10020786003B0BDE8F08F2A464046D2
:1017B00000F06CFB06460028D7D12169404600F0B6
:1017C000BDFAB3E72DE9F04F98468B891B069DB013
:1017D00007460D4614460ED50B6963B9402100F04B
:1017E000FBFA2860286120B90C233B604FF0FF30E2
:1017F000D1E040236B610023099320238DF8293029
:10180000CDF80C803023DFF8A8818DF82A304FF016
:10181000010923469A4613F8012B0AB1252AF9D16A
:10182000BAEB040B0BD05B46224629463846FFF73D
:10183000F3FE013000F0AA80099A5A4409929AF8FE
:101840000030002B00F0A28000234FF0FF32CDE9E2
:1018500005230AF1010A049307938DF853301A9374
:101860005446052214F8011B5148FEF711FD049A55
:10187000D8B9D00644BF20238DF85330110744BF98
:101880002B238DF853309AF800302A2B15D0079A65
:10189000544600204FF00A0C214611F8013B303B22
:1018A000092B4ED9B0B1079214E0A0EB080309FA56
:1018B00003F313430493A246D2E7039B191D1B684D
:1018C0000391002BBBBF5B4242F0020207930793D8
:1018D000B8BF049223782E2B0CD163782A2B35D1F4
:1018E000039B1A1D1B680392002BB8BF4FF0FF33F8
:1018F00002340593DFF8C8A0217803225046FEF792
:10190000C7FC40B14023A0EB0A0003FA00F0049B9F
:1019100003430134049314F8011B26488DF8281062
:101920000622FEF7B5FC002838D0234B1BBB039BD7
:10193000073323F0070308330393099B33440993C8
:1019400067E70CFB02320C460120A5E700230134B7
:10195000059319464FF00A0C204610F8012B303A37
:10196000092A03D9002BC5D00591C3E70CFB01213F
:1019700004460123F0E703AB00932A460F4B04A96A
:101980003846AFF30080421C0646D6D1AB895B06D1
:101990003FF52CAF09981DB0BDE8F08F03AB009365
:1019A0002A46064B04A9384600F07AF8EBE700BF58
:1019B00078200008822000080000000019160008A6
:1019C0007E2000082DE9F047164699468A680B6983
:1019D000DDF820809342B8BF1346336091F843206E
:1019E00007460C460AB1013333602368990642BFAB
:1019F000336802333360256815F0060506D104F11B
:101A0000190AE36832689B1AAB4226DC94F843203B
:101A1000131E226818BF012392062BD404F143023F
:101A200049463846C04701301ED02368E568326811
:101A300003F00603042B08BFAD1AA36822690CBF8C
:101A400025EAE57500259342C4BF9B1AED180026D0
:101A50001A34B5421AD1002008E001235246494603
:101A60003846C047013003D14FF0FF30BDE8F08762
:101A70000135C6E7E1185A1C302081F843002244A2
:101A800094F8451082F843100233C7E70123224639
:101A900049463846C0470130E6D00136D9E7000054
:101AA0002DE9FF470C469146277E0C99782F8046FA
:101AB0009A4604F1430207D8622F0AD8002F00F09B
:101AC000D880582F00F0A38004F1420684F84270B9
:101AD0003AE0A7F16303152BF6D801A050F823F0E4
:101AE000391B00084D1B0008C91A0008C91A000854
:101AF000C91A0008C91A00084D1B0008C91A0008B5
:101B0000C91A0008C91A0008C91A0008591C000897
:101B10007D1B00083B1C0008C91A0008C91A0008F0
:101B20007B1C0008C91A00087D1B0008C91A0008A0
:101B3000C91A0008431C00080B681A1D1B680A60BC
:101B400004F1420684F842300123A3E025680868C6
:101B50002E0600F104030AD505680B60002D03DA98
:101B60002D236D4284F843305E480A2319E015F0B6
:101B7000400F05680B6018BF2DB2EFE70B682568B2
:101B8000181D0860280601D51D6802E06906FBD50E
:101B90001D8854486F2F0CBF08230A23002184F8A6
:101BA00043106668A660002EA2BF216821F00401E0
:101BB00021600DB9002E4DD01646B5FBF3F103FBA5
:101BC0001157C75D06F8017D2F46BB420D46F4D97B
:101BD000082B0BD12368DF0708D523696168994278
:101BE000DEBF302306F8013C06F1FF36921B22616E
:101BF000CDF800A04B4603AA21464046FFF7E2FE7F
:101C000001304CD14FF0FF3004B0BDE8F0873548CB
:101C100084F8457023680E681F0656F8045B0E6052
:101C200014D5D90744BF43F0200323601DB92368AE
:101C300023F0200323601023B0E7236843F0200340
:101C400023607823284884F84530E3E75E0648BFE0
:101C5000ADB2E6E71646BBE70B68266860691D1D56
:101C60000D6035061B6801D5186002E07106FBD5D2
:101C70001880002323611646BAE70B681A1D0A6014
:101C80001E68626800213046FEF702FB08B1801B27
:101C9000606063682361002384F84330A8E7236908
:101CA000324649464046D0470130ABD023689B07B7
:101CB00013D4E068039B9842B8BF1846A4E70123F9
:101CC000324649464046D04701309BD00135E36853
:101CD00003995B1AAB42F2DCEBE7002504F119062D
:101CE000F5E700BF892000089A2000080A449142C5
:101CF00000F1FF3300D1704710B511F8014B03F824
:101D0000014F9142F9D110BD884210B501EB020498
:101D100002D98442234607D8431EA14208D011F8B5
:101D2000012B03F8012FF8E7024401468A4200D153
:101D300010BD13F8014D02F8014DF7E738B505461F
:101D4000002945D051F8043C0C1F002BB8BFE41803
:101D500000F0D2F81F4A1368104633B9636014606C
:101D60002846BDE8384000F0CDB8A3420BD9216821
:101D70006218934204BF1A685B68636004BF52181C
:101D800022600460ECE71A465B680BB1A342FAD903
:101D900011685018A0420BD12068014450188342AA
:101DA0001160DDD118685B68536001441160D7E7AA
:101DB00002D90C232B60D3E7206821188B4204BF83
:101DC00019685B68636004BF091821605460C7E745
:101DD00038BD00BFA0000020F8B5CD1C25F00305DC
:101DE00008350C2D38BF0C25002D064601DBA94215
:101DF00003D90C2333600020F8BD00F07DF82149A1
:101E00000A6814469CB9204F3B6823B921463046E6
:101E100000F062F838602946304600F05DF8431C57
:101E200023D10C233360304600F06CF8E3E72368DD
:101E30005B1B17D40B2B03D923601C44256004E0E3
:101E40006368A2420CBF0B605360304600F05AF842
:101E500004F10B00231D20F00700C21ACCD01B1A7E
:101E6000A350C9E722466468CCE7C41C24F00304ED
:101E7000A042E3D0211A304600F02EF80130DDD127
:101E8000CFE700BFA0000020A4000020F8B507465F
:101E900014460E4621B9BDE8F8401146FFF79CBF35
:101EA00022B9FFF74BFF25462846F8BD00F030F871
:101EB000A0420FD221463846FFF78EFF0546002884
:101EC000F2D031462246FFF711FF31463846FFF780
:101ED00035FFE9E73546E7E738B5064D0023044608
:101EE00008462B60FFF79AF9431C02D12B6803B117
:101EF000236038BD14030020014800F080B800BF03
:101F00001C030020014800F080B800BF1C03002023
:101F100051F8043C181F002BBCBF0B58C018704769
:101F200038B50C460968054609B1FFF7F9FF2146A7
:101F30002846BDE83840FFF701BF00002C4B1B6866
:101F4000834270B5044651D0436A43B1DB68002B2D
:101F50004AD1636A196811B12046FFF7EFFE616943
:101F600011B12046FFF7EAFE616A11B12046FFF782
:101F7000E5FEA16B11B12046FFF7E0FEE16B11B168
:101F80002046FFF7DBFE216C11B12046FFF7D6FE9D
:101F9000E16D11B12046FFF7D1FEA16D11B12046D0
:101FA000FFF7CCFE616B11B12046FFF7C7FEA369B6
:101FB000E3B1A36A20469847A16CB9B12046BDE8B9
:101FC0007040FFF7ADBF495941B90435636A802DB0
:101FD000D968F8D12046FFF7B1FEBAE70E6820466F
:101FE000FFF7ACFE3146EFE70025EFE770BD00BF1D
:101FF0001400002070477047704770477047704763
:10200000012070470120704770477047FEE700BF0E
:1020100000000000F8B500BFF8BC08BC9E46704741
:0C202000F8B500BFF8BC08BC9E46704735
:10202C000408020000000000DFB008996F6B005339
:10203C00756363657373210057726F6E6720636FEE
:10204C0064652E2052656D61696E696E67207472CD
:10205C006965733A20256C64004465766963652074
:10206C006C6F636B6564000018000020232D302B0F
:10207C002000686C4C00656667454647003031327D
:10208C0033343536373839414243444546003031D4
:10209C003233343536373839616263646566000033
:0820AC0024E1FF7F01000000A8
:0420B400B50100086A
:0420B800910100088A
:1020BC000000000000127A00300000002800000030
:1020CC0038353234180000200000000000000000F9
:1020DC0000000000000000000000000000000000F4
:1020EC0000000000000000000000000000000000E4
:1020FC0000000000000000000000000000000000D4
:10210C0000000000000000000000000000000000C3
:10211C0000000000000000000000000000000000B3
:08212C000000000000000000AB
:0400000508000331BB
:00000001FF
